{
  "address": "0xDc64a140Aa3E981100a9becA4E685f962f0cF6C9",
  "abi": [
    {
      "inputs": [
        {
          "internalType": "address",
          "name": "_vrfCoordinatorV2",
          "type": "address"
        },
        {
          "internalType": "bytes32",
          "name": "_gasLane",
          "type": "bytes32"
        }
      ],
      "stateMutability": "nonpayable",
      "type": "constructor"
    },
    {
      "inputs": [
        {
          "internalType": "address",
          "name": "have",
          "type": "address"
        },
        {
          "internalType": "address",
          "name": "want",
          "type": "address"
        }
      ],
      "name": "OnlyCoordinatorCanFulfill",
      "type": "error"
    },
    {
      "inputs": [
        {
          "internalType": "uint256",
          "name": "_playId",
          "type": "uint256"
        }
      ],
      "name": "_getRandomNumber",
      "outputs": [
        {
          "internalType": "uint256",
          "name": "",
          "type": "uint256"
        }
      ],
      "stateMutability": "view",
      "type": "function"
    },
    {
      "inputs": [],
      "name": "_haveNumbers",
      "outputs": [
        {
          "internalType": "bool",
          "name": "",
          "type": "bool"
        }
      ],
      "stateMutability": "view",
      "type": "function"
    },
    {
      "inputs": [
        {
          "internalType": "uint256",
          "name": "requestId",
          "type": "uint256"
        },
        {
          "internalType": "uint256[]",
          "name": "randomWords",
          "type": "uint256[]"
        }
      ],
      "name": "rawFulfillRandomWords",
      "outputs": [],
      "stateMutability": "nonpayable",
      "type": "function"
    },
    {
      "inputs": [],
      "name": "requestAlgoPlay",
      "outputs": [],
      "stateMutability": "nonpayable",
      "type": "function"
    },
    {
      "inputs": [],
      "name": "s_requestId",
      "outputs": [
        {
          "internalType": "uint256",
          "name": "",
          "type": "uint256"
        }
      ],
      "stateMutability": "view",
      "type": "function"
    }
  ],
  "transactionHash": "0x617fc945489e893144833d14a126393b4ef6a4c4cc24ab546f9244465551dff4",
  "args": [
    "0x5FbDB2315678afecb367f032d93F642f64180aa3",
    "0xd89b2bf150e3b9e13446986e571fb9cab24b13cea0a43ea20a6049a85cc807cc"
  ],
  "numDeployments": 1,
  "solcInputHash": "8e8e168b5162b01cc8c9b28586bc337d",
  "bytecode": "0x60e060405234801561001057600080fd5b50604051610a66380380610a66833981810160405281019061003291906100db565b818073ffffffffffffffffffffffffffffffffffffffff1660808173ffffffffffffffffffffffffffffffffffffffff1660601b81525050508173ffffffffffffffffffffffffffffffffffffffff1660a08173ffffffffffffffffffffffffffffffffffffffff1660601b815250508060c081815250505050610181565b6000815190506100c081610153565b92915050565b6000815190506100d58161016a565b92915050565b600080604083850312156100ee57600080fd5b60006100fc858286016100b1565b925050602061010d858286016100c6565b9150509250929050565b600061012282610133565b9050919050565b6000819050919050565b600073ffffffffffffffffffffffffffffffffffffffff82169050919050565b61015c81610117565b811461016757600080fd5b50565b61017381610129565b811461017e57600080fd5b50565b60805160601c60a05160601c60c0516108a96101bd600039600061025a0152600061021e01526000818161015e01526101b201526108a96000f3fe608060405234801561001057600080fd5b50600436106100575760003560e01c80630ac9d35f1461005c5780631e209d181461008c5780631fe543e3146100aa57806333951648146100c6578063e89e106a146100d0575b600080fd5b6100766004803603810190610071919061047d565b6100ee565b6040516100839190610623565b60405180910390f35b61009461013b565b6040516100a191906105b5565b60405180910390f35b6100c460048036038101906100bf91906104cf565b61015c565b005b6100ce61021c565b005b6100d86102fe565b6040516100e59190610623565b60405180910390f35b6000808281548110610129577f4e487b7100000000000000000000000000000000000000000000000000000000600052603260045260246000fd5b90600052602060002001549050919050565b6000600360008054905014156101545760019050610159565b600090505b90565b7f000000000000000000000000000000000000000000000000000000000000000073ffffffffffffffffffffffffffffffffffffffff163373ffffffffffffffffffffffffffffffffffffffff161461020e57337f00000000000000000000000000000000000000000000000000000000000000006040517f1cf993f400000000000000000000000000000000000000000000000000000000815260040161020592919061058c565b60405180910390fd5b6102188282610304565b5050565b7f000000000000000000000000000000000000000000000000000000000000000073ffffffffffffffffffffffffffffffffffffffff16635d3b1d307f000000000000000000000000000000000000000000000000000000000000000061131e6003620f424060056040518663ffffffff1660e01b81526004016102a49594939291906105d0565b602060405180830381600087803b1580156102be57600080fd5b505af11580156102d2573d6000803e3d6000fd5b505050506040513d601f19601f820116820180604052508101906102f691906104a6565b600181905550565b60015481565b60005b60028110156103b857600282828151811061034b577f4e487b7100000000000000000000000000000000000000000000000000000000600052603260045260246000fd5b602002602001015161035d919061078d565b60008281548110610397577f4e487b7100000000000000000000000000000000000000000000000000000000600052603260045260246000fd5b906000526020600020018190555080806103b090610744565b915050610307565b505050565b60006103d06103cb84610663565b61063e565b905080838252602082019050828560208602820111156103ef57600080fd5b60005b8581101561041f57816104058882610453565b8452602084019350602083019250506001810190506103f2565b5050509392505050565b600082601f83011261043a57600080fd5b813561044a8482602086016103bd565b91505092915050565b6000813590506104628161085c565b92915050565b6000815190506104778161085c565b92915050565b60006020828403121561048f57600080fd5b600061049d84828501610453565b91505092915050565b6000602082840312156104b857600080fd5b60006104c684828501610468565b91505092915050565b600080604083850312156104e257600080fd5b60006104f085828601610453565b925050602083013567ffffffffffffffff81111561050d57600080fd5b61051985828601610429565b9150509250929050565b61052c8161068f565b82525050565b61053b816106a1565b82525050565b61054a816106ad565b82525050565b610559816106b7565b82525050565b610568816106e5565b82525050565b610577816106ef565b82525050565b610586816106ff565b82525050565b60006040820190506105a16000830185610523565b6105ae6020830184610523565b9392505050565b60006020820190506105ca6000830184610532565b92915050565b600060a0820190506105e56000830188610541565b6105f2602083018761057d565b6105ff6040830186610550565b61060c606083018561056e565b610619608083018461056e565b9695505050505050565b6000602082019050610638600083018461055f565b92915050565b6000610648610659565b90506106548282610713565b919050565b6000604051905090565b600067ffffffffffffffff82111561067e5761067d61081c565b5b602082029050602081019050919050565b600061069a826106c5565b9050919050565b60008115159050919050565b6000819050919050565b600061ffff82169050919050565b600073ffffffffffffffffffffffffffffffffffffffff82169050919050565b6000819050919050565b600063ffffffff82169050919050565b600067ffffffffffffffff82169050919050565b61071c8261084b565b810181811067ffffffffffffffff8211171561073b5761073a61081c565b5b80604052505050565b600061074f826106e5565b91507fffffffffffffffffffffffffffffffffffffffffffffffffffffffffffffffff821415610782576107816107be565b5b600182019050919050565b6000610798826106e5565b91506107a3836106e5565b9250826107b3576107b26107ed565b5b828206905092915050565b7f4e487b7100000000000000000000000000000000000000000000000000000000600052601160045260246000fd5b7f4e487b7100000000000000000000000000000000000000000000000000000000600052601260045260246000fd5b7f4e487b7100000000000000000000000000000000000000000000000000000000600052604160045260246000fd5b6000601f19601f8301169050919050565b610865816106e5565b811461087057600080fd5b5056fea2646970667358221220f26e7ecfc7a7f2107cb38f7c885600f415a421ec1261c99dd97e63aec11e21df64736f6c63430008040033",
  "devdoc": {
    "kind": "dev",
    "methods": {
      "requestAlgoPlay()": {
        "details": "This function will make a request to the oracle to generate the random numbers:"
      }
    },
    "version": 1
  },
  "userdoc": {
    "kind": "user",
    "methods": {},
    "version": 1
  },
  "storageLayout": {
    "storage": [
      {
        "astId": 849,
        "contract": "contracts/VFR.sol:VRF",
        "label": "s_randomWords",
        "offset": 0,
        "slot": "0",
        "type": "t_array(t_uint256)dyn_storage"
      },
      {
        "astId": 851,
        "contract": "contracts/VFR.sol:VRF",
        "label": "s_requestId",
        "offset": 0,
        "slot": "1",
        "type": "t_uint256"
      }
    ],
    "types": {
      "t_array(t_uint256)dyn_storage": {
        "base": "t_uint256",
        "encoding": "dynamic_array",
        "label": "uint256[]",
        "numberOfBytes": "32"
      },
      "t_uint256": {
        "encoding": "inplace",
        "label": "uint256",
        "numberOfBytes": "32"
      }
    }
  }
}